{
  "_format": "hh-sol-artifact-1",
  "contractName": "MyEpicGame",
  "sourceName": "contracts/MyEpicGame.sol",
  "abi": [
    {
      "inputs": [
        {
          "internalType": "string[]",
          "name": "characterNames",
          "type": "string[]"
        },
        {
          "internalType": "string[]",
          "name": "characterImageURIs",
          "type": "string[]"
        },
        {
          "internalType": "uint256[]",
          "name": "characterHp",
          "type": "uint256[]"
        },
        {
          "internalType": "uint256[]",
          "name": "characterAttackDmg",
          "type": "uint256[]"
        },
        {
          "internalType": "string",
          "name": "bigCatName",
          "type": "string"
        },
        {
          "internalType": "string",
          "name": "bigCatImageURI",
          "type": "string"
        },
        {
          "internalType": "uint256",
          "name": "bigCatHp",
          "type": "uint256"
        },
        {
          "internalType": "uint256",
          "name": "bigCatAttackDamage",
          "type": "uint256"
        }
      ],
      "stateMutability": "nonpayable",
      "type": "constructor"
    },
    {
      "anonymous": false,
      "inputs": [
        {
          "indexed": true,
          "internalType": "address",
          "name": "owner",
          "type": "address"
        },
        {
          "indexed": true,
          "internalType": "address",
          "name": "approved",
          "type": "address"
        },
        {
          "indexed": true,
          "internalType": "uint256",
          "name": "tokenId",
          "type": "uint256"
        }
      ],
      "name": "Approval",
      "type": "event"
    },
    {
      "anonymous": false,
      "inputs": [
        {
          "indexed": true,
          "internalType": "address",
          "name": "owner",
          "type": "address"
        },
        {
          "indexed": true,
          "internalType": "address",
          "name": "operator",
          "type": "address"
        },
        {
          "indexed": false,
          "internalType": "bool",
          "name": "approved",
          "type": "bool"
        }
      ],
      "name": "ApprovalForAll",
      "type": "event"
    },
    {
      "anonymous": false,
      "inputs": [
        {
          "indexed": false,
          "internalType": "uint256",
          "name": "newBigCatHp",
          "type": "uint256"
        },
        {
          "indexed": false,
          "internalType": "uint256",
          "name": "newPlayerHp",
          "type": "uint256"
        }
      ],
      "name": "AttackComplete",
      "type": "event"
    },
    {
      "anonymous": false,
      "inputs": [
        {
          "indexed": false,
          "internalType": "address",
          "name": "sender",
          "type": "address"
        },
        {
          "indexed": false,
          "internalType": "uint256",
          "name": "tokenId",
          "type": "uint256"
        },
        {
          "indexed": false,
          "internalType": "uint256",
          "name": "characterIndex",
          "type": "uint256"
        }
      ],
      "name": "CharacterNFTMinted",
      "type": "event"
    },
    {
      "anonymous": false,
      "inputs": [
        {
          "indexed": true,
          "internalType": "address",
          "name": "from",
          "type": "address"
        },
        {
          "indexed": true,
          "internalType": "address",
          "name": "to",
          "type": "address"
        },
        {
          "indexed": true,
          "internalType": "uint256",
          "name": "tokenId",
          "type": "uint256"
        }
      ],
      "name": "Transfer",
      "type": "event"
    },
    {
      "inputs": [
        {
          "internalType": "address",
          "name": "to",
          "type": "address"
        },
        {
          "internalType": "uint256",
          "name": "tokenId",
          "type": "uint256"
        }
      ],
      "name": "approve",
      "outputs": [],
      "stateMutability": "nonpayable",
      "type": "function"
    },
    {
      "inputs": [],
      "name": "attackBoss",
      "outputs": [],
      "stateMutability": "nonpayable",
      "type": "function"
    },
    {
      "inputs": [
        {
          "internalType": "address",
          "name": "owner",
          "type": "address"
        }
      ],
      "name": "balanceOf",
      "outputs": [
        {
          "internalType": "uint256",
          "name": "",
          "type": "uint256"
        }
      ],
      "stateMutability": "view",
      "type": "function"
    },
    {
      "inputs": [],
      "name": "bigCat",
      "outputs": [
        {
          "internalType": "string",
          "name": "name",
          "type": "string"
        },
        {
          "internalType": "string",
          "name": "imageURI",
          "type": "string"
        },
        {
          "internalType": "uint256",
          "name": "hp",
          "type": "uint256"
        },
        {
          "internalType": "uint256",
          "name": "maxHp",
          "type": "uint256"
        },
        {
          "internalType": "uint256",
          "name": "attackDamage",
          "type": "uint256"
        }
      ],
      "stateMutability": "view",
      "type": "function"
    },
    {
      "inputs": [],
      "name": "checkIfUserHasNFT",
      "outputs": [
        {
          "components": [
            {
              "internalType": "uint256",
              "name": "characterIndex",
              "type": "uint256"
            },
            {
              "internalType": "string",
              "name": "name",
              "type": "string"
            },
            {
              "internalType": "string",
              "name": "imageURI",
              "type": "string"
            },
            {
              "internalType": "uint256",
              "name": "hp",
              "type": "uint256"
            },
            {
              "internalType": "uint256",
              "name": "maxHp",
              "type": "uint256"
            },
            {
              "internalType": "uint256",
              "name": "attackDamage",
              "type": "uint256"
            }
          ],
          "internalType": "struct MyEpicGame.CharacterAttributes",
          "name": "",
          "type": "tuple"
        }
      ],
      "stateMutability": "view",
      "type": "function"
    },
    {
      "inputs": [],
      "name": "getAllDefaultCharacters",
      "outputs": [
        {
          "components": [
            {
              "internalType": "uint256",
              "name": "characterIndex",
              "type": "uint256"
            },
            {
              "internalType": "string",
              "name": "name",
              "type": "string"
            },
            {
              "internalType": "string",
              "name": "imageURI",
              "type": "string"
            },
            {
              "internalType": "uint256",
              "name": "hp",
              "type": "uint256"
            },
            {
              "internalType": "uint256",
              "name": "maxHp",
              "type": "uint256"
            },
            {
              "internalType": "uint256",
              "name": "attackDamage",
              "type": "uint256"
            }
          ],
          "internalType": "struct MyEpicGame.CharacterAttributes[]",
          "name": "",
          "type": "tuple[]"
        }
      ],
      "stateMutability": "view",
      "type": "function"
    },
    {
      "inputs": [
        {
          "internalType": "uint256",
          "name": "tokenId",
          "type": "uint256"
        }
      ],
      "name": "getApproved",
      "outputs": [
        {
          "internalType": "address",
          "name": "",
          "type": "address"
        }
      ],
      "stateMutability": "view",
      "type": "function"
    },
    {
      "inputs": [],
      "name": "getBigCat",
      "outputs": [
        {
          "components": [
            {
              "internalType": "string",
              "name": "name",
              "type": "string"
            },
            {
              "internalType": "string",
              "name": "imageURI",
              "type": "string"
            },
            {
              "internalType": "uint256",
              "name": "hp",
              "type": "uint256"
            },
            {
              "internalType": "uint256",
              "name": "maxHp",
              "type": "uint256"
            },
            {
              "internalType": "uint256",
              "name": "attackDamage",
              "type": "uint256"
            }
          ],
          "internalType": "struct MyEpicGame.BigCat",
          "name": "",
          "type": "tuple"
        }
      ],
      "stateMutability": "view",
      "type": "function"
    },
    {
      "inputs": [
        {
          "internalType": "address",
          "name": "owner",
          "type": "address"
        },
        {
          "internalType": "address",
          "name": "operator",
          "type": "address"
        }
      ],
      "name": "isApprovedForAll",
      "outputs": [
        {
          "internalType": "bool",
          "name": "",
          "type": "bool"
        }
      ],
      "stateMutability": "view",
      "type": "function"
    },
    {
      "inputs": [
        {
          "internalType": "uint256",
          "name": "_characterIndex",
          "type": "uint256"
        }
      ],
      "name": "mintCharacterNFT",
      "outputs": [],
      "stateMutability": "nonpayable",
      "type": "function"
    },
    {
      "inputs": [],
      "name": "name",
      "outputs": [
        {
          "internalType": "string",
          "name": "",
          "type": "string"
        }
      ],
      "stateMutability": "view",
      "type": "function"
    },
    {
      "inputs": [
        {
          "internalType": "uint256",
          "name": "",
          "type": "uint256"
        }
      ],
      "name": "nftHolderAttributes",
      "outputs": [
        {
          "internalType": "uint256",
          "name": "characterIndex",
          "type": "uint256"
        },
        {
          "internalType": "string",
          "name": "name",
          "type": "string"
        },
        {
          "internalType": "string",
          "name": "imageURI",
          "type": "string"
        },
        {
          "internalType": "uint256",
          "name": "hp",
          "type": "uint256"
        },
        {
          "internalType": "uint256",
          "name": "maxHp",
          "type": "uint256"
        },
        {
          "internalType": "uint256",
          "name": "attackDamage",
          "type": "uint256"
        }
      ],
      "stateMutability": "view",
      "type": "function"
    },
    {
      "inputs": [
        {
          "internalType": "address",
          "name": "",
          "type": "address"
        }
      ],
      "name": "nftHolders",
      "outputs": [
        {
          "internalType": "uint256",
          "name": "",
          "type": "uint256"
        }
      ],
      "stateMutability": "view",
      "type": "function"
    },
    {
      "inputs": [
        {
          "internalType": "uint256",
          "name": "tokenId",
          "type": "uint256"
        }
      ],
      "name": "ownerOf",
      "outputs": [
        {
          "internalType": "address",
          "name": "",
          "type": "address"
        }
      ],
      "stateMutability": "view",
      "type": "function"
    },
    {
      "inputs": [
        {
          "internalType": "address",
          "name": "from",
          "type": "address"
        },
        {
          "internalType": "address",
          "name": "to",
          "type": "address"
        },
        {
          "internalType": "uint256",
          "name": "tokenId",
          "type": "uint256"
        }
      ],
      "name": "safeTransferFrom",
      "outputs": [],
      "stateMutability": "nonpayable",
      "type": "function"
    },
    {
      "inputs": [
        {
          "internalType": "address",
          "name": "from",
          "type": "address"
        },
        {
          "internalType": "address",
          "name": "to",
          "type": "address"
        },
        {
          "internalType": "uint256",
          "name": "tokenId",
          "type": "uint256"
        },
        {
          "internalType": "bytes",
          "name": "_data",
          "type": "bytes"
        }
      ],
      "name": "safeTransferFrom",
      "outputs": [],
      "stateMutability": "nonpayable",
      "type": "function"
    },
    {
      "inputs": [
        {
          "internalType": "address",
          "name": "operator",
          "type": "address"
        },
        {
          "internalType": "bool",
          "name": "approved",
          "type": "bool"
        }
      ],
      "name": "setApprovalForAll",
      "outputs": [],
      "stateMutability": "nonpayable",
      "type": "function"
    },
    {
      "inputs": [
        {
          "internalType": "bytes4",
          "name": "interfaceId",
          "type": "bytes4"
        }
      ],
      "name": "supportsInterface",
      "outputs": [
        {
          "internalType": "bool",
          "name": "",
          "type": "bool"
        }
      ],
      "stateMutability": "view",
      "type": "function"
    },
    {
      "inputs": [],
      "name": "symbol",
      "outputs": [
        {
          "internalType": "string",
          "name": "",
          "type": "string"
        }
      ],
      "stateMutability": "view",
      "type": "function"
    },
    {
      "inputs": [
        {
          "internalType": "uint256",
          "name": "_tokenId",
          "type": "uint256"
        }
      ],
      "name": "tokenURI",
      "outputs": [
        {
          "internalType": "string",
          "name": "",
          "type": "string"
        }
      ],
      "stateMutability": "view",
      "type": "function"
    },
    {
      "inputs": [
        {
          "internalType": "address",
          "name": "from",
          "type": "address"
        },
        {
          "internalType": "address",
          "name": "to",
          "type": "address"
        },
        {
          "internalType": "uint256",
          "name": "tokenId",
          "type": "uint256"
        }
      ],
      "name": "transferFrom",
      "outputs": [],
      "stateMutability": "nonpayable",
      "type": "function"
    }
  ],
  "bytecode": "0x60806040523480156200001157600080fd5b50604051620056b1380380620056b1833981810160405281019062000037919062000a5a565b6040518060400160405280600b81526020017f4361742057617272696f720000000000000000000000000000000000000000008152506040518060400160405280600481526020017f43415457000000000000000000000000000000000000000000000000000000008152508160009080519060200190620000bb929190620007ed565b508060019080519060200190620000d4929190620007ed565b5050506040518060a0016040528085815260200184815260200183815260200183815260200182815250600960008201518160000190805190602001906200011e929190620007ed565b5060208201518160010190805190602001906200013d929190620007ed565b50604082015181600201556060820151816003015560808201518160040155905050620002c06040518060600160405280602d815260200162005684602d9139600960000180546200018f9062000de5565b80601f0160208091040260200160405190810160405280929190818152602001828054620001bd9062000de5565b80156200020e5780601f10620001e2576101008083540402835291602001916200020e565b820191906000526020600020905b815481529060010190602001808311620001f057829003601f168201915b5050505050600960020154600960010180546200022b9062000de5565b80601f0160208091040260200160405190810160405280929190818152602001828054620002599062000de5565b8015620002aa5780601f106200027e57610100808354040283529160200191620002aa565b820191906000526020600020905b8154815290600101906020018083116200028c57829003601f168201915b50505050506200070260201b62001d191760201c565b60005b8851811015620006dc5760076040518060c001604052808381526020018b84815181106200031a577f4e487b7100000000000000000000000000000000000000000000000000000000600052603260045260246000fd5b602002602001015181526020018a848151811062000361577f4e487b7100000000000000000000000000000000000000000000000000000000600052603260045260246000fd5b60200260200101518152602001898481518110620003a8577f4e487b7100000000000000000000000000000000000000000000000000000000600052603260045260246000fd5b60200260200101518152602001898481518110620003ef577f4e487b7100000000000000000000000000000000000000000000000000000000600052603260045260246000fd5b6020026020010151815260200188848151811062000436577f4e487b7100000000000000000000000000000000000000000000000000000000600052603260045260246000fd5b6020026020010151815250908060018154018082558091505060019003906000526020600020906006020160009091909190915060008201518160000155602082015181600101908051906020019062000492929190620007ed565b506040820151816002019080519060200190620004b1929190620007ed565b50606082015181600301556080820151816004015560a0820151816005015550506000600782815481106200050f577f4e487b7100000000000000000000000000000000000000000000000000000000600052603260045260246000fd5b90600052602060002090600602016040518060c001604052908160008201548152602001600182018054620005449062000de5565b80601f0160208091040260200160405190810160405280929190818152602001828054620005729062000de5565b8015620005c35780601f106200059757610100808354040283529160200191620005c3565b820191906000526020600020905b815481529060010190602001808311620005a557829003601f168201915b50505050508152602001600282018054620005de9062000de5565b80601f01602080910402602001604051908101604052809291908181526020018280546200060c9062000de5565b80156200065d5780601f1062000631576101008083540402835291602001916200065d565b820191906000526020600020905b8154815290600101906020018083116200063f57829003601f168201915b5050505050815260200160038201548152602001600482015481526020016005820154815250509050620006c46040518060600160405280602581526020016200565f602591398260200151836060015184604001516200070260201b62001d191760201c565b50600181620006d4919062000d48565b9050620002c3565b50620006f46006620007ae60201b62001dbb1760201c565b505050505050505062000ed3565b620007a8848484846040516024016200071f949392919062000c05565b6040516020818303038152906040527f8d142cdd000000000000000000000000000000000000000000000000000000007bffffffffffffffffffffffffffffffffffffffffffffffffffffffff19166020820180517bffffffffffffffffffffffffffffffffffffffffffffffffffffffff8381831617835250505050620007c460201b60201c565b50505050565b6001816000016000828254019250508190555050565b60008151905060006a636f6e736f6c652e6c6f679050602083016000808483855afa5050505050565b828054620007fb9062000de5565b90600052602060002090601f0160209004810192826200081f57600085556200086b565b82601f106200083a57805160ff19168380011785556200086b565b828001600101855582156200086b579182015b828111156200086a5782518255916020019190600101906200084d565b5b5090506200087a91906200087e565b5090565b5b80821115620008995760008160009055506001016200087f565b5090565b6000620008b4620008ae8462000c9b565b62000c67565b9050808382526020820190508260005b85811015620008f85781518501620008dd888262000a16565b845260208401935060208301925050600181019050620008c4565b5050509392505050565b600062000919620009138462000cca565b62000c67565b905080838252602082019050828560208602820111156200093957600080fd5b60005b858110156200096d578162000952888262000a43565b8452602084019350602083019250506001810190506200093c565b5050509392505050565b60006200098e620009888462000cf9565b62000c67565b905082815260208101848484011115620009a757600080fd5b620009b484828562000daf565b509392505050565b600082601f830112620009ce57600080fd5b8151620009e08482602086016200089d565b91505092915050565b600082601f830112620009fb57600080fd5b815162000a0d84826020860162000902565b91505092915050565b600082601f83011262000a2857600080fd5b815162000a3a84826020860162000977565b91505092915050565b60008151905062000a548162000eb9565b92915050565b600080600080600080600080610100898b03121562000a7857600080fd5b600089015167ffffffffffffffff81111562000a9357600080fd5b62000aa18b828c01620009bc565b985050602089015167ffffffffffffffff81111562000abf57600080fd5b62000acd8b828c01620009bc565b975050604089015167ffffffffffffffff81111562000aeb57600080fd5b62000af98b828c01620009e9565b965050606089015167ffffffffffffffff81111562000b1757600080fd5b62000b258b828c01620009e9565b955050608089015167ffffffffffffffff81111562000b4357600080fd5b62000b518b828c0162000a16565b94505060a089015167ffffffffffffffff81111562000b6f57600080fd5b62000b7d8b828c0162000a16565b93505060c062000b908b828c0162000a43565b92505060e062000ba38b828c0162000a43565b9150509295985092959890939650565b600062000bc08262000d2c565b62000bcc818562000d37565b935062000bde81856020860162000daf565b62000be98162000ea8565b840191505092915050565b62000bff8162000da5565b82525050565b6000608082019050818103600083015262000c21818762000bb3565b9050818103602083015262000c37818662000bb3565b905062000c48604083018562000bf4565b818103606083015262000c5c818462000bb3565b905095945050505050565b6000604051905081810181811067ffffffffffffffff8211171562000c915762000c9062000e79565b5b8060405250919050565b600067ffffffffffffffff82111562000cb95762000cb862000e79565b5b602082029050602081019050919050565b600067ffffffffffffffff82111562000ce85762000ce762000e79565b5b602082029050602081019050919050565b600067ffffffffffffffff82111562000d175762000d1662000e79565b5b601f19601f8301169050602081019050919050565b600081519050919050565b600082825260208201905092915050565b600062000d558262000da5565b915062000d628362000da5565b9250827fffffffffffffffffffffffffffffffffffffffffffffffffffffffffffffffff0382111562000d9a5762000d9962000e1b565b5b828201905092915050565b6000819050919050565b60005b8381101562000dcf57808201518184015260208101905062000db2565b8381111562000ddf576000848401525b50505050565b6000600282049050600182168062000dfe57607f821691505b6020821081141562000e155762000e1462000e4a565b5b50919050565b7f4e487b7100000000000000000000000000000000000000000000000000000000600052601160045260246000fd5b7f4e487b7100000000000000000000000000000000000000000000000000000000600052602260045260246000fd5b7f4e487b7100000000000000000000000000000000000000000000000000000000600052604160045260246000fd5b6000601f19601f8301169050919050565b62000ec48162000da5565b811462000ed057600080fd5b50565b61477c8062000ee36000396000f3fe608060405234801561001057600080fd5b50600436106101375760003560e01c80637df124a1116100b8578063b953084e1161007c578063b953084e14610369578063c87b56dd14610387578063c8cf27f4146103b7578063d4f24c5b146103d5578063e985e9c5146103df578063f8b81ef71461040f57610137565b80637df124a1146102ae57806395d89b41146102de57806398da4c95146102fc578063a22cb46514610331578063b88d4fde1461034d57610137565b806342842e0e116100ff57806342842e0e146101f2578063492f77d51461020e5780635ee9c1c81461022c5780636352211e1461024e57806370a082311461027e57610137565b806301ffc9a71461013c57806306fdde031461016c578063081812fc1461018a578063095ea7b3146101ba57806323b872dd146101d6575b600080fd5b61015660048036038101906101519190612ff3565b61042b565b6040516101639190613d53565b60405180910390f35b61017461050d565b6040516101819190613d6e565b60405180910390f35b6101a4600480360381019061019f9190613045565b61059f565b6040516101b19190613c93565b60405180910390f35b6101d460048036038101906101cf9190612fb7565b610624565b005b6101f060048036038101906101eb9190612eb1565b61073c565b005b61020c60048036038101906102079190612eb1565b61079c565b005b6102166107bc565b60405161022391906140ec565b60405180910390f35b610234610918565b604051610245959493929190613e3d565b60405180910390f35b61026860048036038101906102639190613045565b610a4c565b6040516102759190613c93565b60405180910390f35b61029860048036038101906102939190612e4c565b610afe565b6040516102a59190614130565b60405180910390f35b6102c860048036038101906102c39190612e4c565b610bb6565b6040516102d59190614130565b60405180910390f35b6102e6610bce565b6040516102f39190613d6e565b60405180910390f35b61031660048036038101906103119190613045565b610c60565b6040516103289695949392919061414b565b60405180910390f35b61034b60048036038101906103469190612f7b565b610dac565b005b61036760048036038101906103629190612f00565b610f2d565b005b610371610f8f565b60405161037e9190613d31565b60405180910390f35b6103a1600480360381019061039c9190613045565b61113a565b6040516103ae9190613d6e565b60405180910390f35b6103bf611355565b6040516103cc919061410e565b60405180910390f35b6103dd61152d565b005b6103f960048036038101906103f49190612e75565b611891565b6040516104069190613d53565b60405180910390f35b61042960048036038101906104249190613045565b611925565b005b60007f80ac58cd000000000000000000000000000000000000000000000000000000007bffffffffffffffffffffffffffffffffffffffffffffffffffffffff1916827bffffffffffffffffffffffffffffffffffffffffffffffffffffffff191614806104f657507f5b5e139f000000000000000000000000000000000000000000000000000000007bffffffffffffffffffffffffffffffffffffffffffffffffffffffff1916827bffffffffffffffffffffffffffffffffffffffffffffffffffffffff1916145b80610506575061050582611dd1565b5b9050919050565b60606000805461051c9061449c565b80601f01602080910402602001604051908101604052809291908181526020018280546105489061449c565b80156105955780601f1061056a57610100808354040283529160200191610595565b820191906000526020600020905b81548152906001019060200180831161057857829003601f168201915b5050505050905090565b60006105aa82611e3b565b6105e9576040517f08c379a00000000000000000000000000000000000000000000000000000000081526004016105e09061406c565b60405180910390fd5b6004600083815260200190815260200160002060009054906101000a900473ffffffffffffffffffffffffffffffffffffffff169050919050565b600061062f82610a4c565b90508073ffffffffffffffffffffffffffffffffffffffff168373ffffffffffffffffffffffffffffffffffffffff1614156106a0576040517f08c379a0000000000000000000000000000000000000000000000000000000008152600401610697906140ac565b60405180910390fd5b8073ffffffffffffffffffffffffffffffffffffffff166106bf611ea7565b73ffffffffffffffffffffffffffffffffffffffff1614806106ee57506106ed816106e8611ea7565b611891565b5b61072d576040517f08c379a000000000000000000000000000000000000000000000000000000000815260040161072490613fcc565b60405180910390fd5b6107378383611eaf565b505050565b61074d610747611ea7565b82611f68565b61078c576040517f08c379a0000000000000000000000000000000000000000000000000000000008152600401610783906140cc565b60405180910390fd5b610797838383612046565b505050565b6107b783838360405180602001604052806000815250610f2d565b505050565b6107c4612c73565b60096040518060a00160405290816000820180546107e19061449c565b80601f016020809104026020016040519081016040528092919081815260200182805461080d9061449c565b801561085a5780601f1061082f5761010080835404028352916020019161085a565b820191906000526020600020905b81548152906001019060200180831161083d57829003601f168201915b505050505081526020016001820180546108739061449c565b80601f016020809104026020016040519081016040528092919081815260200182805461089f9061449c565b80156108ec5780601f106108c1576101008083540402835291602001916108ec565b820191906000526020600020905b8154815290600101906020018083116108cf57829003601f168201915b505050505081526020016002820154815260200160038201548152602001600482015481525050905090565b60098060000180546109299061449c565b80601f01602080910402602001604051908101604052809291908181526020018280546109559061449c565b80156109a25780601f10610977576101008083540402835291602001916109a2565b820191906000526020600020905b81548152906001019060200180831161098557829003601f168201915b5050505050908060010180546109b79061449c565b80601f01602080910402602001604051908101604052809291908181526020018280546109e39061449c565b8015610a305780601f10610a0557610100808354040283529160200191610a30565b820191906000526020600020905b815481529060010190602001808311610a1357829003601f168201915b5050505050908060020154908060030154908060040154905085565b6000806002600084815260200190815260200160002060009054906101000a900473ffffffffffffffffffffffffffffffffffffffff169050600073ffffffffffffffffffffffffffffffffffffffff168173ffffffffffffffffffffffffffffffffffffffff161415610af5576040517f08c379a0000000000000000000000000000000000000000000000000000000008152600401610aec9061400c565b60405180910390fd5b80915050919050565b60008073ffffffffffffffffffffffffffffffffffffffff168273ffffffffffffffffffffffffffffffffffffffff161415610b6f576040517f08c379a0000000000000000000000000000000000000000000000000000000008152600401610b6690613fec565b60405180910390fd5b600360008373ffffffffffffffffffffffffffffffffffffffff1673ffffffffffffffffffffffffffffffffffffffff168152602001908152602001600020549050919050565b600e6020528060005260406000206000915090505481565b606060018054610bdd9061449c565b80601f0160208091040260200160405190810160405280929190818152602001828054610c099061449c565b8015610c565780601f10610c2b57610100808354040283529160200191610c56565b820191906000526020600020905b815481529060010190602001808311610c3957829003601f168201915b5050505050905090565b6008602052806000526040600020600091509050806000015490806001018054610c899061449c565b80601f0160208091040260200160405190810160405280929190818152602001828054610cb59061449c565b8015610d025780601f10610cd757610100808354040283529160200191610d02565b820191906000526020600020905b815481529060010190602001808311610ce557829003601f168201915b505050505090806002018054610d179061449c565b80601f0160208091040260200160405190810160405280929190818152602001828054610d439061449c565b8015610d905780601f10610d6557610100808354040283529160200191610d90565b820191906000526020600020905b815481529060010190602001808311610d7357829003601f168201915b5050505050908060030154908060040154908060050154905086565b610db4611ea7565b73ffffffffffffffffffffffffffffffffffffffff168273ffffffffffffffffffffffffffffffffffffffff161415610e22576040517f08c379a0000000000000000000000000000000000000000000000000000000008152600401610e1990613f8c565b60405180910390fd5b8060056000610e2f611ea7565b73ffffffffffffffffffffffffffffffffffffffff1673ffffffffffffffffffffffffffffffffffffffff16815260200190815260200160002060008473ffffffffffffffffffffffffffffffffffffffff1673ffffffffffffffffffffffffffffffffffffffff16815260200190815260200160002060006101000a81548160ff0219169083151502179055508173ffffffffffffffffffffffffffffffffffffffff16610edc611ea7565b73ffffffffffffffffffffffffffffffffffffffff167f17307eab39ab6107e8899845ad3d59bd9653f200f220920489ca2b5937696c3183604051610f219190613d53565b60405180910390a35050565b610f3e610f38611ea7565b83611f68565b610f7d576040517f08c379a0000000000000000000000000000000000000000000000000000000008152600401610f74906140cc565b60405180910390fd5b610f89848484846122a2565b50505050565b60606007805480602002602001604051908101604052809291908181526020016000905b8282101561113157838290600052602060002090600602016040518060c001604052908160008201548152602001600182018054610ff09061449c565b80601f016020809104026020016040519081016040528092919081815260200182805461101c9061449c565b80156110695780601f1061103e57610100808354040283529160200191611069565b820191906000526020600020905b81548152906001019060200180831161104c57829003601f168201915b505050505081526020016002820180546110829061449c565b80601f01602080910402602001604051908101604052809291908181526020018280546110ae9061449c565b80156110fb5780601f106110d0576101008083540402835291602001916110fb565b820191906000526020600020905b8154815290600101906020018083116110de57829003601f168201915b50505050508152602001600382015481526020016004820154815260200160058201548152505081526020019060010190610fb3565b50505050905090565b60606000600860008481526020019081526020016000206040518060c0016040529081600082015481526020016001820180546111769061449c565b80601f01602080910402602001604051908101604052809291908181526020018280546111a29061449c565b80156111ef5780601f106111c4576101008083540402835291602001916111ef565b820191906000526020600020905b8154815290600101906020018083116111d257829003601f168201915b505050505081526020016002820180546112089061449c565b80601f01602080910402602001604051908101604052809291908181526020018280546112349061449c565b80156112815780601f1061125657610100808354040283529160200191611281565b820191906000526020600020905b81548152906001019060200180831161126457829003601f168201915b505050505081526020016003820154815260200160048201548152602001600582015481525050905060006112b982606001516122fe565b905060006112ca83608001516122fe565b905060006112db8460a001516122fe565b9050600061132185602001516112f0896122fe565b876040015187878760405160200161130d96959493929190613bcc565b6040516020818303038152906040526124ab565b90506000816040516020016113369190613c71565b6040516020818303038152906040529050809650505050505050919050565b61135d612ca2565b6000600e60003373ffffffffffffffffffffffffffffffffffffffff1673ffffffffffffffffffffffffffffffffffffffff168152602001908152602001600020549050600081111561151c57600860008281526020019081526020016000206040518060c0016040529081600082015481526020016001820180546113e29061449c565b80601f016020809104026020016040519081016040528092919081815260200182805461140e9061449c565b801561145b5780601f106114305761010080835404028352916020019161145b565b820191906000526020600020905b81548152906001019060200180831161143e57829003601f168201915b505050505081526020016002820180546114749061449c565b80601f01602080910402602001604051908101604052809291908181526020018280546114a09061449c565b80156114ed5780601f106114c2576101008083540402835291602001916114ed565b820191906000526020600020905b8154815290600101906020018083116114d057829003601f168201915b50505050508152602001600382015481526020016004820154815260200160058201548152505091505061152a565b611524612ca2565b80925050505b90565b6000600e60003373ffffffffffffffffffffffffffffffffffffffff1673ffffffffffffffffffffffffffffffffffffffff16815260200190815260200160002054905060006008600083815260200190815260200160002090506116406040518060600160405280603c815260200161470b603c91398260010180546115b39061449c565b80601f01602080910402602001604051908101604052809291908181526020018280546115df9061449c565b801561162c5780601f106116015761010080835404028352916020019161162c565b820191906000526020600020905b81548152906001019060200180831161160f57829003601f168201915b505050505083600301548460050154612669565b6117186040518060400160405280601e81526020017f426967206361742025732068617320257320485020616e642025732041440000815250600960000180546116899061449c565b80601f01602080910402602001604051908101604052809291908181526020018280546116b59061449c565b80156117025780601f106116d757610100808354040283529160200191611702565b820191906000526020600020905b8154815290600101906020018083116116e557829003601f168201915b5050505050600960020154600960040154612669565b600081600301541161175f576040517f08c379a00000000000000000000000000000000000000000000000000000000081526004016117569061402c565b60405180910390fd5b6000600960020154116117a7576040517f08c379a000000000000000000000000000000000000000000000000000000000815260040161179e90613f2c565b60405180910390fd5b806005015460096002015410156117c85760006009600201819055506117e7565b80600501546009600201546117dd91906143b2565b6009600201819055505b600960040154816003015410156118075760008160030181905550611825565b600960040154816003015461181c91906143b2565b81600301819055505b61184b6040518060600160405280602b8152602001614672602b9139826003015461270b565b7f838ab28464562786a6c4ab2311964b82fa60bd9b14aa7e856af1f3f18d41a41460096002015482600301546040516118859291906141ba565b60405180910390a15050565b6000600560008473ffffffffffffffffffffffffffffffffffffffff1673ffffffffffffffffffffffffffffffffffffffff16815260200190815260200160002060008373ffffffffffffffffffffffffffffffffffffffff1673ffffffffffffffffffffffffffffffffffffffff16815260200190815260200160002060009054906101000a900460ff16905092915050565b600061193160066127a7565b905061193d33826127b5565b6040518060c0016040528083815260200160078481548110611988577f4e487b7100000000000000000000000000000000000000000000000000000000600052603260045260246000fd5b906000526020600020906006020160010180546119a49061449c565b80601f01602080910402602001604051908101604052809291908181526020018280546119d09061449c565b8015611a1d5780601f106119f257610100808354040283529160200191611a1d565b820191906000526020600020905b815481529060010190602001808311611a0057829003601f168201915b5050505050815260200160078481548110611a61577f4e487b7100000000000000000000000000000000000000000000000000000000600052603260045260246000fd5b90600052602060002090600602016002018054611a7d9061449c565b80601f0160208091040260200160405190810160405280929190818152602001828054611aa99061449c565b8015611af65780601f10611acb57610100808354040283529160200191611af6565b820191906000526020600020905b815481529060010190602001808311611ad957829003601f168201915b5050505050815260200160078481548110611b3a577f4e487b7100000000000000000000000000000000000000000000000000000000600052603260045260246000fd5b906000526020600020906006020160030154815260200160078481548110611b8b577f4e487b7100000000000000000000000000000000000000000000000000000000600052603260045260246000fd5b906000526020600020906006020160030154815260200160078481548110611bdc577f4e487b7100000000000000000000000000000000000000000000000000000000600052603260045260246000fd5b90600052602060002090600602016005015481525060086000838152602001908152602001600020600082015181600001556020820151816001019080519060200190611c2a929190612cd8565b506040820151816002019080519060200190611c47929190612cd8565b50606082015181600301556080820151816004015560a08201518160050155905050611c8c6040518060600160405280602e81526020016146dd602e913982846127d3565b80600e60003373ffffffffffffffffffffffffffffffffffffffff1673ffffffffffffffffffffffffffffffffffffffff16815260200190815260200160002081905550611cda6006611dbb565b7f4bc303fd457a97b4691b9af582ce71868a3d258638c8d4f8c60988a0f0bfb8cd338284604051611d0d93929190613cfa565b60405180910390a15050565b611db584848484604051602401611d339493929190613d90565b6040516020818303038152906040527f8d142cdd000000000000000000000000000000000000000000000000000000007bffffffffffffffffffffffffffffffffffffffffffffffffffffffff19166020820180517bffffffffffffffffffffffffffffffffffffffffffffffffffffffff8381831617835250505050612872565b50505050565b6001816000016000828254019250508190555050565b60007f01ffc9a7000000000000000000000000000000000000000000000000000000007bffffffffffffffffffffffffffffffffffffffffffffffffffffffff1916827bffffffffffffffffffffffffffffffffffffffffffffffffffffffff1916149050919050565b60008073ffffffffffffffffffffffffffffffffffffffff166002600084815260200190815260200160002060009054906101000a900473ffffffffffffffffffffffffffffffffffffffff1673ffffffffffffffffffffffffffffffffffffffff1614159050919050565b600033905090565b816004600083815260200190815260200160002060006101000a81548173ffffffffffffffffffffffffffffffffffffffff021916908373ffffffffffffffffffffffffffffffffffffffff160217905550808273ffffffffffffffffffffffffffffffffffffffff16611f2283610a4c565b73ffffffffffffffffffffffffffffffffffffffff167f8c5be1e5ebec7d5bd14f71427d1e84f3dd0314c0f7b2291e5b200ac8c7c3b92560405160405180910390a45050565b6000611f7382611e3b565b611fb2576040517f08c379a0000000000000000000000000000000000000000000000000000000008152600401611fa990613fac565b60405180910390fd5b6000611fbd83610a4c565b90508073ffffffffffffffffffffffffffffffffffffffff168473ffffffffffffffffffffffffffffffffffffffff16148061202c57508373ffffffffffffffffffffffffffffffffffffffff166120148461059f565b73ffffffffffffffffffffffffffffffffffffffff16145b8061203d575061203c8185611891565b5b91505092915050565b8273ffffffffffffffffffffffffffffffffffffffff1661206682610a4c565b73ffffffffffffffffffffffffffffffffffffffff16146120bc576040517f08c379a00000000000000000000000000000000000000000000000000000000081526004016120b39061408c565b60405180910390fd5b600073ffffffffffffffffffffffffffffffffffffffff168273ffffffffffffffffffffffffffffffffffffffff16141561212c576040517f08c379a000000000000000000000000000000000000000000000000000000000815260040161212390613f6c565b60405180910390fd5b61213783838361289b565b612142600082611eaf565b6001600360008573ffffffffffffffffffffffffffffffffffffffff1673ffffffffffffffffffffffffffffffffffffffff168152602001908152602001600020600082825461219291906143b2565b925050819055506001600360008473ffffffffffffffffffffffffffffffffffffffff1673ffffffffffffffffffffffffffffffffffffffff16815260200190815260200160002060008282546121e991906142d1565b92505081905550816002600083815260200190815260200160002060006101000a81548173ffffffffffffffffffffffffffffffffffffffff021916908373ffffffffffffffffffffffffffffffffffffffff160217905550808273ffffffffffffffffffffffffffffffffffffffff168473ffffffffffffffffffffffffffffffffffffffff167fddf252ad1be2c89b69c2b068fc378daa952ba7f163c4a11628f55a4df523b3ef60405160405180910390a4505050565b6122ad848484612046565b6122b9848484846128a0565b6122f8576040517f08c379a00000000000000000000000000000000000000000000000000000000081526004016122ef90613f0c565b60405180910390fd5b50505050565b60606000821415612346576040518060400160405280600181526020017f300000000000000000000000000000000000000000000000000000000000000081525090506124a6565b600082905060005b60008214612378578080612361906144ce565b915050600a826123719190614327565b915061234e565b60008167ffffffffffffffff8111156123ba577f4e487b7100000000000000000000000000000000000000000000000000000000600052604160045260246000fd5b6040519080825280601f01601f1916602001820160405280156123ec5781602001600182028036833780820191505090505b5090505b6000851461249f5760018261240591906143b2565b9150600a856124149190614517565b603061242091906142d1565b60f81b81838151811061245c577f4e487b7100000000000000000000000000000000000000000000000000000000600052603260045260246000fd5b60200101907effffffffffffffffffffffffffffffffffffffffffffffffffffffffffffff1916908160001a905350600a856124989190614327565b94506123f0565b8093505050505b919050565b606060008251905060008114156124d45760405180602001604052806000815250915050612664565b600060036002836124e591906142d1565b6124ef9190614327565b60046124fb9190614358565b9050600060208261250c91906142d1565b67ffffffffffffffff81111561254b577f4e487b7100000000000000000000000000000000000000000000000000000000600052604160045260246000fd5b6040519080825280601f01601f19166020018201604052801561257d5781602001600182028036833780820191505090505b509050600060405180606001604052806040815260200161469d604091399050600181016020830160005b868110156126215760038101905062ffffff818a015116603f8160121c168401518060081b905060ff603f83600c1c1686015116810190508060081b905060ff603f8360061c1686015116810190508060081b905060ff603f831686015116810190508060e01b905080845260048401935050506125a8565b50600386066001811461263b576002811461264b57612656565b613d3d60f01b6002830352612656565b603d60f81b60018303525b508484525050819450505050505b919050565b612705848484846040516024016126839493929190613dea565b6040516020818303038152906040527fd5cf17d0000000000000000000000000000000000000000000000000000000007bffffffffffffffffffffffffffffffffffffffffffffffffffffffff19166020820180517bffffffffffffffffffffffffffffffffffffffffffffffffffffffff8381831617835250505050612872565b50505050565b6127a38282604051602401612721929190613e9e565b6040516020818303038152906040527f9710a9d0000000000000000000000000000000000000000000000000000000007bffffffffffffffffffffffffffffffffffffffffffffffffffffffff19166020820180517bffffffffffffffffffffffffffffffffffffffffffffffffffffffff8381831617835250505050612872565b5050565b600081600001549050919050565b6127cf828260405180602001604052806000815250612a37565b5050565b61286d8383836040516024016127eb93929190613ece565b6040516020818303038152906040527f969cdd03000000000000000000000000000000000000000000000000000000007bffffffffffffffffffffffffffffffffffffffffffffffffffffffff19166020820180517bffffffffffffffffffffffffffffffffffffffffffffffffffffffff8381831617835250505050612872565b505050565b60008151905060006a636f6e736f6c652e6c6f679050602083016000808483855afa5050505050565b505050565b60006128c18473ffffffffffffffffffffffffffffffffffffffff16612a92565b15612a2a578373ffffffffffffffffffffffffffffffffffffffff1663150b7a026128ea611ea7565b8786866040518563ffffffff1660e01b815260040161290c9493929190613cae565b602060405180830381600087803b15801561292657600080fd5b505af192505050801561295757506040513d601f19601f82011682018060405250810190612954919061301c565b60015b6129da573d8060008114612987576040519150601f19603f3d011682016040523d82523d6000602084013e61298c565b606091505b506000815114156129d2576040517f08c379a00000000000000000000000000000000000000000000000000000000081526004016129c990613f0c565b60405180910390fd5b805181602001fd5b63150b7a0260e01b7bffffffffffffffffffffffffffffffffffffffffffffffffffffffff1916817bffffffffffffffffffffffffffffffffffffffffffffffffffffffff191614915050612a2f565b600190505b949350505050565b612a418383612aa5565b612a4e60008484846128a0565b612a8d576040517f08c379a0000000000000000000000000000000000000000000000000000000008152600401612a8490613f0c565b60405180910390fd5b505050565b600080823b905060008111915050919050565b600073ffffffffffffffffffffffffffffffffffffffff168273ffffffffffffffffffffffffffffffffffffffff161415612b15576040517f08c379a0000000000000000000000000000000000000000000000000000000008152600401612b0c9061404c565b60405180910390fd5b612b1e81611e3b565b15612b5e576040517f08c379a0000000000000000000000000000000000000000000000000000000008152600401612b5590613f4c565b60405180910390fd5b612b6a6000838361289b565b6001600360008473ffffffffffffffffffffffffffffffffffffffff1673ffffffffffffffffffffffffffffffffffffffff1681526020019081526020016000206000828254612bba91906142d1565b92505081905550816002600083815260200190815260200160002060006101000a81548173ffffffffffffffffffffffffffffffffffffffff021916908373ffffffffffffffffffffffffffffffffffffffff160217905550808273ffffffffffffffffffffffffffffffffffffffff16600073ffffffffffffffffffffffffffffffffffffffff167fddf252ad1be2c89b69c2b068fc378daa952ba7f163c4a11628f55a4df523b3ef60405160405180910390a45050565b6040518060a0016040528060608152602001606081526020016000815260200160008152602001600081525090565b6040518060c001604052806000815260200160608152602001606081526020016000815260200160008152602001600081525090565b828054612ce49061449c565b90600052602060002090601f016020900481019282612d065760008555612d4d565b82601f10612d1f57805160ff1916838001178555612d4d565b82800160010185558215612d4d579182015b82811115612d4c578251825591602001919060010190612d31565b5b509050612d5a9190612d5e565b5090565b5b80821115612d77576000816000905550600101612d5f565b5090565b6000612d8e612d8984614214565b6141e3565b905082815260208101848484011115612da657600080fd5b612db184828561445a565b509392505050565b600081359050612dc881614615565b92915050565b600081359050612ddd8161462c565b92915050565b600081359050612df281614643565b92915050565b600081519050612e0781614643565b92915050565b600082601f830112612e1e57600080fd5b8135612e2e848260208601612d7b565b91505092915050565b600081359050612e468161465a565b92915050565b600060208284031215612e5e57600080fd5b6000612e6c84828501612db9565b91505092915050565b60008060408385031215612e8857600080fd5b6000612e9685828601612db9565b9250506020612ea785828601612db9565b9150509250929050565b600080600060608486031215612ec657600080fd5b6000612ed486828701612db9565b9350506020612ee586828701612db9565b9250506040612ef686828701612e37565b9150509250925092565b60008060008060808587031215612f1657600080fd5b6000612f2487828801612db9565b9450506020612f3587828801612db9565b9350506040612f4687828801612e37565b925050606085013567ffffffffffffffff811115612f6357600080fd5b612f6f87828801612e0d565b91505092959194509250565b60008060408385031215612f8e57600080fd5b6000612f9c85828601612db9565b9250506020612fad85828601612dce565b9150509250929050565b60008060408385031215612fca57600080fd5b6000612fd885828601612db9565b9250506020612fe985828601612e37565b9150509250929050565b60006020828403121561300557600080fd5b600061301384828501612de3565b91505092915050565b60006020828403121561302e57600080fd5b600061303c84828501612df8565b91505092915050565b60006020828403121561305757600080fd5b600061306584828501612e37565b91505092915050565b600061307a8383613a8e565b905092915050565b61308b816143e6565b82525050565b600061309c82614254565b6130a68185614282565b9350836020820285016130b885614244565b8060005b858110156130f457848403895281516130d5858261306e565b94506130e083614275565b925060208a019950506001810190506130bc565b50829750879550505050505092915050565b61310f816143f8565b82525050565b60006131208261425f565b61312a8185614293565b935061313a818560208601614469565b61314381614604565b840191505092915050565b60006131598261426a565b61316381856142a4565b9350613173818560208601614469565b61317c81614604565b840191505092915050565b60006131928261426a565b61319c81856142b5565b93506131ac818560208601614469565b6131b581614604565b840191505092915050565b60006131cb8261426a565b6131d581856142c6565b93506131e5818560208601614469565b80840191505092915050565b60006131fe600b836142c6565b91507f202d2d204e465420233a200000000000000000000000000000000000000000006000830152600b82019050919050565b600061323e6032836142b5565b91507f4552433732313a207472616e7366657220746f206e6f6e20455243373231526560008301527f63656976657220696d706c656d656e74657200000000000000000000000000006020830152604082019050919050565b60006132a46028836142b5565b91507f4572726f723a20626f7373206d757374206861766520485020746f206174746160008301527f636b20626f73732e0000000000000000000000000000000000000000000000006020830152604082019050919050565b600061330a601c836142b5565b91507f4552433732313a20746f6b656e20616c7265616479206d696e746564000000006000830152602082019050919050565b600061334a600e836142c6565b91507f2c20226d61785f76616c7565223a0000000000000000000000000000000000006000830152600e82019050919050565b600061338a6024836142b5565b91507f4552433732313a207472616e7366657220746f20746865207a65726f2061646460008301527f72657373000000000000000000000000000000000000000000000000000000006020830152604082019050919050565b60006133f06019836142b5565b91507f4552433732313a20617070726f766520746f2063616c6c6572000000000000006000830152602082019050919050565b6000613430602c836142b5565b91507f4552433732313a206f70657261746f7220717565727920666f72206e6f6e657860008301527f697374656e7420746f6b656e00000000000000000000000000000000000000006020830152604082019050919050565b60006134966038836142b5565b91507f4552433732313a20617070726f76652063616c6c6572206973206e6f74206f7760008301527f6e6572206e6f7220617070726f76656420666f7220616c6c00000000000000006020830152604082019050919050565b60006134fc602a836142b5565b91507f4552433732313a2062616c616e636520717565727920666f7220746865207a6560008301527f726f2061646472657373000000000000000000000000000000000000000000006020830152604082019050919050565b60006135626029836142b5565b91507f4552433732313a206f776e657220717565727920666f72206e6f6e657869737460008301527f656e7420746f6b656e00000000000000000000000000000000000000000000006020830152604082019050919050565b60006135c8602d836142b5565b91507f4572726f723a20636861726163746572206d757374206861766520485020746f60008301527f2061747461636b20626f73732e000000000000000000000000000000000000006020830152604082019050919050565b600061362e6004836142c6565b91507f7d205d7d000000000000000000000000000000000000000000000000000000006000830152600482019050919050565b600061366e6020836142b5565b91507f4552433732313a206d696e7420746f20746865207a65726f20616464726573736000830152602082019050919050565b60006136ae602c836142b5565b91507f4552433732313a20617070726f76656420717565727920666f72206e6f6e657860008301527f697374656e7420746f6b656e00000000000000000000000000000000000000006020830152604082019050919050565b60006137146029836142b5565b91507f4552433732313a207472616e73666572206f6620746f6b656e2074686174206960008301527f73206e6f74206f776e00000000000000000000000000000000000000000000006020830152604082019050919050565b600061377a600a836142c6565b91507f7b226e616d65223a2022000000000000000000000000000000000000000000006000830152600a82019050919050565b60006137ba605d836142c6565b91507f222c20226465736372697074696f6e223a20225468697320697320616e204e4660008301527f542074686174206c6574732070656f706c6520706c617920696e20746865206760208301527f616d65204361742057617272696f7221222c2022696d616765223a20220000006040830152605d82019050919050565b60006138466021836142b5565b91507f4552433732313a20617070726f76616c20746f2063757272656e74206f776e6560008301527f72000000000000000000000000000000000000000000000000000000000000006020830152604082019050919050565b60006138ac601d836142c6565b91507f646174613a6170706c69636174696f6e2f6a736f6e3b6261736536342c0000006000830152601d82019050919050565b60006138ec6031836142b5565b91507f4552433732313a207472616e736665722063616c6c6572206973206e6f74206f60008301527f776e6572206e6f7220617070726f7665640000000000000000000000000000006020830152604082019050919050565b6000613952603d836142c6565b91507f222c202261747472696275746573223a205b207b202274726169745f7479706560008301527f223a20224865616c746820506f696e7473222c202276616c7565223a200000006020830152603d82019050919050565b60006139b8602d836142c6565b91507f7d2c207b202274726169745f74797065223a202241747461636b2044616d616760008301527f65222c202276616c7565223a20000000000000000000000000000000000000006020830152602d82019050919050565b600060a0830160008301518482036000860152613a2e828261314e565b91505060208301518482036020860152613a48828261314e565b9150506040830151613a5d6040860182613bae565b506060830151613a706060860182613bae565b506080830151613a836080860182613bae565b508091505092915050565b600060c083016000830151613aa66000860182613bae565b5060208301518482036020860152613abe828261314e565b91505060408301518482036040860152613ad8828261314e565b9150506060830151613aed6060860182613bae565b506080830151613b006080860182613bae565b5060a0830151613b1360a0860182613bae565b508091505092915050565b600060c083016000830151613b366000860182613bae565b5060208301518482036020860152613b4e828261314e565b91505060408301518482036040860152613b68828261314e565b9150506060830151613b7d6060860182613bae565b506080830151613b906080860182613bae565b5060a0830151613ba360a0860182613bae565b508091505092915050565b613bb781614450565b82525050565b613bc681614450565b82525050565b6000613bd78261376d565b9150613be382896131c0565b9150613bee826131f1565b9150613bfa82886131c0565b9150613c05826137ad565b9150613c1182876131c0565b9150613c1c82613945565b9150613c2882866131c0565b9150613c338261333d565b9150613c3f82856131c0565b9150613c4a826139ab565b9150613c5682846131c0565b9150613c6182613621565b9150819050979650505050505050565b6000613c7c8261389f565b9150613c8882846131c0565b915081905092915050565b6000602082019050613ca86000830184613082565b92915050565b6000608082019050613cc36000830187613082565b613cd06020830186613082565b613cdd6040830185613bbd565b8181036060830152613cef8184613115565b905095945050505050565b6000606082019050613d0f6000830186613082565b613d1c6020830185613bbd565b613d296040830184613bbd565b949350505050565b60006020820190508181036000830152613d4b8184613091565b905092915050565b6000602082019050613d686000830184613106565b92915050565b60006020820190508181036000830152613d888184613187565b905092915050565b60006080820190508181036000830152613daa8187613187565b90508181036020830152613dbe8186613187565b9050613dcd6040830185613bbd565b8181036060830152613ddf8184613187565b905095945050505050565b60006080820190508181036000830152613e048187613187565b90508181036020830152613e188186613187565b9050613e276040830185613bbd565b613e346060830184613bbd565b95945050505050565b600060a0820190508181036000830152613e578188613187565b90508181036020830152613e6b8187613187565b9050613e7a6040830186613bbd565b613e876060830185613bbd565b613e946080830184613bbd565b9695505050505050565b60006040820190508181036000830152613eb88185613187565b9050613ec76020830184613bbd565b9392505050565b60006060820190508181036000830152613ee88186613187565b9050613ef76020830185613bbd565b613f046040830184613bbd565b949350505050565b60006020820190508181036000830152613f2581613231565b9050919050565b60006020820190508181036000830152613f4581613297565b9050919050565b60006020820190508181036000830152613f65816132fd565b9050919050565b60006020820190508181036000830152613f858161337d565b9050919050565b60006020820190508181036000830152613fa5816133e3565b9050919050565b60006020820190508181036000830152613fc581613423565b9050919050565b60006020820190508181036000830152613fe581613489565b9050919050565b60006020820190508181036000830152614005816134ef565b9050919050565b6000602082019050818103600083015261402581613555565b9050919050565b60006020820190508181036000830152614045816135bb565b9050919050565b6000602082019050818103600083015261406581613661565b9050919050565b60006020820190508181036000830152614085816136a1565b9050919050565b600060208201905081810360008301526140a581613707565b9050919050565b600060208201905081810360008301526140c581613839565b9050919050565b600060208201905081810360008301526140e5816138df565b9050919050565b600060208201905081810360008301526141068184613a11565b905092915050565b600060208201905081810360008301526141288184613b1e565b905092915050565b60006020820190506141456000830184613bbd565b92915050565b600060c0820190506141606000830189613bbd565b81810360208301526141728188613187565b905081810360408301526141868187613187565b90506141956060830186613bbd565b6141a26080830185613bbd565b6141af60a0830184613bbd565b979650505050505050565b60006040820190506141cf6000830185613bbd565b6141dc6020830184613bbd565b9392505050565b6000604051905081810181811067ffffffffffffffff8211171561420a576142096145d5565b5b8060405250919050565b600067ffffffffffffffff82111561422f5761422e6145d5565b5b601f19601f8301169050602081019050919050565b6000819050602082019050919050565b600081519050919050565b600081519050919050565b600081519050919050565b6000602082019050919050565b600082825260208201905092915050565b600082825260208201905092915050565b600082825260208201905092915050565b600082825260208201905092915050565b600081905092915050565b60006142dc82614450565b91506142e783614450565b9250827fffffffffffffffffffffffffffffffffffffffffffffffffffffffffffffffff0382111561431c5761431b614548565b5b828201905092915050565b600061433282614450565b915061433d83614450565b92508261434d5761434c614577565b5b828204905092915050565b600061436382614450565b915061436e83614450565b9250817fffffffffffffffffffffffffffffffffffffffffffffffffffffffffffffffff04831182151516156143a7576143a6614548565b5b828202905092915050565b60006143bd82614450565b91506143c883614450565b9250828210156143db576143da614548565b5b828203905092915050565b60006143f182614430565b9050919050565b60008115159050919050565b60007fffffffff0000000000000000000000000000000000000000000000000000000082169050919050565b600073ffffffffffffffffffffffffffffffffffffffff82169050919050565b6000819050919050565b82818337600083830152505050565b60005b8381101561448757808201518184015260208101905061446c565b83811115614496576000848401525b50505050565b600060028204905060018216806144b457607f821691505b602082108114156144c8576144c76145a6565b5b50919050565b60006144d982614450565b91507fffffffffffffffffffffffffffffffffffffffffffffffffffffffffffffffff82141561450c5761450b614548565b5b600182019050919050565b600061452282614450565b915061452d83614450565b92508261453d5761453c614577565b5b828206905092915050565b7f4e487b7100000000000000000000000000000000000000000000000000000000600052601160045260246000fd5b7f4e487b7100000000000000000000000000000000000000000000000000000000600052601260045260246000fd5b7f4e487b7100000000000000000000000000000000000000000000000000000000600052602260045260246000fd5b7f4e487b7100000000000000000000000000000000000000000000000000000000600052604160045260246000fd5b6000601f19601f8301169050919050565b61461e816143e6565b811461462957600080fd5b50565b614635816143f8565b811461464057600080fd5b50565b61464c81614404565b811461465757600080fd5b50565b61466381614450565b811461466e57600080fd5b5056fe426967204361742061747461636b656420706c617965722e204e657720706c617965722068703a2025730a4142434445464748494a4b4c4d4e4f505152535455565758595a6162636465666768696a6b6c6d6e6f707172737475767778797a303132333435363738392b2f4d696e746564204e465420772f20746f6b656e496420257320616e6420636861726163746572496e6465782025730a506c6179657220772f206368617261637465722025732061626f757420746f2061747461636b2e2048617320257320485020616e64202573204144a2646970667358221220ce855d4fb9932c9d9e7ce1e35781da0ec73696959d3fd4bd155802270baa78b064736f6c63430008000033446f6e6520696e697469616c697a696e6720257320772f2048502025732c20696d67202573446f6e6520696e697469616c697a696e67206269672063617420257320772f2048502025732c20696d67202573",
  "linkReferences": {},
  "deployedLinkReferences": {}
}